:020000040000FA
:02000000732863
:08000800F0000308F1000408F8
:10001000F200831203138C191720831203138C111F
:100020008B1071088300720884007008090013089F
:1000300083160313941A3128141D5F2883120313A7
:100040002030840027088407000894139300941B31
:100050002528B20A1416A70A073027020319A70198
:100060005F288312031332185E28B100A600A00691
:10007000A01F3E28311C091031180914201F4428E4
:10008000B11C8710B1188714A01E4A28311F07130E
:10009000311B0717201E5028311D09113119091570
:1000A000A01D5628311D081131190815201D5C2886
:1000B000B11E8812B11A88163108A000B2010000E2
:1000C0000800091087100713091108118812080089
:1000D0003408E200E101E001E00F6C28E10F6B2839
:1000E000E20B6A28080083160313061407150C1583
:1000F00087100713091009110811881283120313BE
:100100000530970061200B170B168B178B100C1105
:10011000630000002030B4006820061892280719F8
:1001200094288828B3019628FF30B3008316031360
:10013000861606169F01FF30850094019101443018
:100140009300871507160814871788158914071454
:100150008C1583120313091408158714C830A000E6
:10016000B100363094008C01AB01A701A601B201A9
:10017000861EC6282030B4006820861EC628061AAF
:100180005B2961200530B400682096280830AA0059
:10019000A9013308A8002818A90AA80CAA0BCB2883
:1001A00004302902031CD628071D73280530A90036
:1001B000AA01213084002A08A8000310A80DA80D68
:1001C000A80D280881389F000330E100E001E00F0E
:1001D000E728E10BE6281F081F151F19ED281E0848
:1001E0008000AA0A840AA90BDB2831082006A8008F
:1001F0002B308400840AA81F03292B080002031D4A
:10020000032909142014840A281F0C292B08000232
:10021000031D0C298714A014840AA81E15292B0875
:100220000002031D152907172017840A281E1E29FE
:100230002B080002031D1E2909152015840AA81D7C
:1002400027292B080002031D2729081520152B300C
:100250008400840A091C32298918322909102010C7
:100260002B088000840A871C3B2908183B2987102B
:10027000A0102B088000840A071F4429871B4429EB
:10028000071320132B088000840A091D4D29071825
:100290004D29091120112B088000840A081D5629B8
:1002A00088195629081120112B088000AB0A02304A
:0C02B000B4006820B828612000005C2920
:02400E00323F3F
:00000001FF
