:020000040000FA
:040000001720AC28F1
:08000800F0000308F1000408F8
:10001000F200831203138C196120831203138C11D5
:100020008B10710883007208840070080900831621
:100030000313011307150C158616061606148613EE
:100040008810081287128710071309100911081168
:100050008812831203134020053097000B170B16EC
:100060008B178B100C1163000000562006183B28DC
:1000700007193D283328B301AC28FF30B30008002E
:1000800086138810081287120910871007130911A8
:100090000811881208000230E200E101E001E00FDF
:1000A0004F28E10F4E28E20B4D2808000430E200F3
:1000B000E101E001E00F5A28E10F5928E20B58282E
:1000C0000800130883160313941A7B28141DAA280A
:1000D0008312031320308400270884070008941338
:1000E0009300941B6F28B20A1416A70A0730270240
:1000F0000319A701AA28831203133218A928B100F3
:10010000A0062008A600A01F8928B11F0910B11B56
:100110000914201F8F28311F8710311B8714A01E40
:100120009528B11E0713B11A0717201E9B28311EF0
:100130000911311A0915A01DA128B11D0811B11905
:100140000815201DA728311D88123119881631087D
:10015000A000B20100000800831603139F019F1442
:100160003F308500940191014430930087150716B4
:10017000081487178815891407148C158312031324
:100180008814081687160914081587148816861708
:10019000CC30A000B100363094008C01AB01A70137
:1001A000A601B201861EDC285620861EDC28061A0F
:1001B000722940204B20AC280830AA00A90133083E
:1001C000A8002818A90AA80CAA0BE12804302902C3
:1001D000031CEE280719EE281720AC280530A900CB
:1001E000AA01213084002A08A8000310A80DA80D38
:1001F000A80D280881389F000530E100E001E00FDC
:10020000FF28E10BFE281F081F151F1905291E08CE
:100210008000AA0A840AA90BF3289F01310820064E
:10022000A8002B308400840AA81F1C292B08000278
:10023000031D1C290914A017840A281F25292B082F
:100240000002031D252987142017840AA81E2E29C1
:100250002B080002031D2E290717A016840A281E4A
:1002600037292B080002031D372909152016840A97
:10027000A81D40292B080002031D40290815A015C0
:100280002B308400840A091C4B2989184B2909103A
:10029000A0132B088000840A871C542908185429AD
:1002A000871020132B088000840A071F5D29871BF5
:1002B0005D290713A0122B088000840A091D6629F6
:1002C00007186629091120122B088000840A081DCE
:1002D0006F2988196F290811A0112B088000AB0A1B
:0A02E0004B20D228402000007329B3
:02400E00323F3F
:00000001FF
