:1000000012C02CC02BC02AC029C028C027C026C0BF
:1000100025C024C023C022C021C020C01FC01EC0D4
:100020001DC01CC01BC011241FBECFE5D4E0DEBF25
:10003000CDBF10E0A0E6B0E0E2E0FBE002C005903A
:100040000D92AC3AB107D9F711E0ACEAB0E001C0CB
:100050001D92A231B107E1F731D251C5D1CF87B39B
:10006000807F87BBBB9A80EC8DB9089580EB87BBFE
:10007000C49A83E58DB9089598B3916398BB98B3FA
:1000800021E030E002C0220F331F8A95E2F720956D
:10009000292328BB0895FC0180E090E005C0219150
:1000A0002FB9779BFECF019686179707C1F7089562
:1000B0008FB9779BFECF8FB10895CF93DF930F92C7
:1000C000CDB7DEB7C498880F81606983F1DF69819D
:1000D000862FEEDFC49A0F90DF91CF910895C498D8
:1000E000880FE6DF8FEFE4DFC49A0895CF93DF93A4
:1000F00080E06FE1E2DF80E0F2DF8093110100D069
:1001000000D000D0EDB7FEB73196CDEAD0E0ADB764
:10011000BEB71296DC93CE93119720E630E033837E
:100120002283848315821CD2FE0101900020E9F70E
:10013000BF01615070406C1B7D0B8DB79EB706965A
:100140000FB6F8949EBF0FBE8DBFCE010BD18CE1D0
:1001500060E0B3DFDF91CF91089580E06EE0ADDF26
:1001600080E06FE1AADF08951F93CF93DF93CBE682
:10017000D0E011E06991812FA0DF1F5F1132D1F72C
:10018000DF91CF911F9108951F93CF93DF93182F85
:1001900080E06BE192DF87E1612F8FDF80E797E1FD
:1001A0000197F1F780E069E188DF80E098DF8093D4
:1001B000110100D000D000D0EDB7FEB73196CDEAE6
:1001C000D0E0ADB7BEB71296DC93CE93119720E680
:1001D00030E03383228384831582C2D1FE010190F3
:1001E0000020E9F7BF01615070406C1B7D0B8DB79B
:1001F0009EB706960FB6F8949EBF0FBE8DBFCE0178
:10020000B1D08CE291E00197F1F780E061E155DF38
:10021000DF91CF911F910895AF92BF92DF92EF923D
:10022000FF920F931F93CF93DF93D82E8CE160E062
:1002300044DF04E010E088ECA82EB12C90EDE92E0C
:1002400097E0F92E8BE164EB38DFC5010197F1F7F8
:10025000CFE1D0E003C0C7010197F1F780E43FDFB1
:1002600087FD07C02197B9F704C0C7010197F1F7CF
:1002700002C0CFE1D0E080E432DF84FD02C02197EC
:10028000A1F780E42CDF84FD03C001501040D1F6BB
:100290008CE16D2D12DF80E422DF21E030E084FD6F
:1002A00002C020E030E0C901DF91CF911F910F9192
:1002B000FF90EF90DF90BF90AF900895FF920F9363
:1002C0001F93CF93DF93F62E81E009DF682F6061E3
:1002D00081E0F3DE80E061E1F0DE87E167E4EDDEFE
:1002E000CFE1D0E000ED17E003C0F8013197F1F75E
:1002F00080E4F5DE84FD02C02197B9F780E4EFDEEB
:1003000084FD04C08F2D88DF009711F001E001C04B
:1003100000E080E061E0D1DE85E160E4CEDE802FA8
:10032000DF91CF911F910F91FF900895DFDE15DFD0
:100330001BDF87E429DF8FE06FDF87E425DF87E4B9
:100340006FE0BCDF90E008951BB81AB810BC599A52
:100350008AB188618AB980B5866880BD83E389B92E
:1003600010BC0895FC0180E090E005C05D9BFECFCD
:1003700021912CB9019686179707C1F70895BA986D
:10038000B9980895B29BFECF86B38270B299FECF22
:100390000895DF92EF92FF920F931F93CF93DF9315
:1003A000EC0106C0EFDF110F811111601093AC005A
:1003B0001091AC001E37B1F700E0EE2401C0EF2C25
:1003C000DD2410E0DFDF9091AC00990F882319F451
:1003D0009093AC0017C0FF24F394F92AF092AC007C
:1003E0000F5F053081F4CEDF882361F08F2D880FF9
:1003F00081608093AC00153019F500E0DD24D394C2
:1004000016E001C000E01F5F1830E0F2FE01EE0DC3
:10041000F11D8091AC008083FE2CF394DD2079F2F5
:1004200083E08F1568F4FE01EF0DF11D3397008115
:1004300011816E2D6250CE011FD00817190709F0E7
:10044000FF248F2DDF91CF911F910F91FF90EF909F
:10045000DF90089598E028E034E8462F41707695C3
:100460006795582F5170541711F06227732786959E
:10047000915099F7CB010895EF92FF920F931F933C
:10048000CF93DF93182F062FE82EE7017E01F92E78
:10049000E7012FEF3FEF04C08991B901DBDF9C0139
:1004A000AE01411B4017C0F3C90180959095DF91C3
:1004B000CF911F910F91FF90EF900895CF93DF930D
:1004C000CDB7DEB7C456D0400FB6F894DEBF0FBE2E
:1004D000CDBF3ADF8BE890E063E070E043DFC6DD3C
:1004E0004EDF24DF00D000D000D0EDB7FEB731964C
:1004F0008E010F5F1F4FADB7BEB712961C930E93C0
:10050000119720E930E0338322838483158228D039
:10051000F80101900020E9F7BF0161507040601BB5
:10052000710B8DB79EB706960FB6F8949EBF0FBE9F
:100530008DBFC80117DFF02E012F8F2D902F29DFDF
:10054000182F8823D1F38BE990E060E170E00ADF97
:10055000612F70E0615070408F2D902F03DFEDCF41
:10056000AEE0B0E0E5EBF2E0A1C20D891E8986E0C5
:100570008C831A8309838FEF9FE79E838D839E016F
:10058000275E3F4FCE0101966F89788DA90108D073
:10059000EF81F885E00FF11F10822E96E4E0A2C2F1
:1005A000ACE0B0E0E5EDF2E073C26C011B018A0142
:1005B000FC0117821682838181FFC4C12E01089439
:1005C000411C511CF6019381F10193FD859193FF2C
:1005D00081911F01882309F4B1C1853239F493FD5B
:1005E000859193FF81911F01853221F490E0B6013E
:1005F000C5D1E8CFEE24FF2420E02032B0F48B32C6
:1006000069F08C3228F4803251F0833271F40BC0DF
:100610008D3239F0803349F421602CC0226024608F
:1006200029C0286027C0206125C027FD2CC0382F95
:1006300030533A3098F426FF08C08E2D880FE82EEC
:10064000EE0CEE0CE80EE30E15C08F2D880FF82E81
:10065000FF0CFF0CF80EF30E20620CC08E3221F45A
:1006600026FD6CC1206406C08C3611F4206802C0DF
:10067000883649F4F10193FD859193FF81911F0123
:10068000882309F0BACF982F9554933018F09052E0
:10069000933028F40C5F1F4FFFE3F9830DC08336BE
:1006A00031F0833771F0833509F05CC021C0F80167
:1006B000808189830E5F1F4F420171E0A72EB12C0C
:1006C00015C062E0662E712C600E711EF8018080EC
:1006D000918026FF03C06E2D70E002C06FEF7FEFA8
:1006E000C4012C8740D15C0183012C852F7716C073
:1006F00052E0652E712C600E711EF8018080918091
:1007000026FF03C06E2D70E002C06FEF7FEFC401C3
:100710002C871ED15C012C852068830123FD1EC01F
:1007200007C080E290E0B6012C8728D1FA942C858E
:100730008F2D90E0A816B906A0F310C0F40127FD94
:10074000859127FF81914F0190E0B6012C8716D14A
:100750002C85F110FA940894A108B108A114B104F1
:1007600069F7E9C0843611F0893641F527FF08C0E2
:10077000F80160817181828193810C5F1F4F09C0F4
:10078000F80160817181882777FD8095982F0E5F31
:100790001F4F4FE6B42EB22297FF09C09095809567
:1007A000709561957F4F8F4F9F4FF0E8BF2AA20150
:1007B0002AE030E00FD1782E741844C0853731F428
:1007C0003FEEB32EB2222AE030E025C099EFB92ED9
:1007D000B2228F36C1F0803720F4883509F0AEC0E0
:1007E0000DC0803721F0883709F0A8C002C020E191
:1007F000B22AB4FE0BC084E0B82A08C0B4FE09C017
:10080000E6E0BE2A06C028E030E005C020E130E086
:1008100002C020E132E0B7FE08C0F80160817181BA
:10082000828193810C5F1F4F07C0F8016081718145
:1008300080E090E00E5F1F4FA201CCD0782E74189C
:10084000FFE7BF22B6FE0BC02EEFB2227E1438F4B3
:10085000B4FE07C0B2FC05C08FEEB82202C0A72CC0
:1008600001C0AE2C8B2D90E0B4FE0DC0FE01E70D53
:10087000F11D2081203319F4E9EEBE2209C0A394B2
:10088000B2FE06C004C086789070009709F0A39469
:100890008B2C9924B3FC13C0B0FE0EC0AF1428F407
:1008A000E72CEF0CEA18AF2C07C0E72C05C080E25C
:1008B00090E0B60163D0A394AF14C8F304C0AF14A2
:1008C00010F4FA1801C0FF2484FE0EC080E390E00B
:1008D000B60154D082FE1DC081FE03C088E590E0C1
:1008E00010C088E790E00DC0C40186789070009732
:1008F00081F081FC02C080E201C08BE2B7FC8DE296
:1009000090E0B6013BD005C080E390E0B60136D060
:10091000EA947E14C8F37A94F201E70DF11D808108
:1009200090E0B6012BD07720B1F705C080E290E0CF
:10093000B60124D0FA94FF20C9F744CEF6012681EF
:10094000378102C02FEF3FEFC9012C96E2E1BCC016
:10095000FC010590615070400110D8F7809590958A
:100960008E0F9F1F0895FC0161507040019001108F
:10097000D8F7809590958E0F9F1F08950F931F9322
:10098000CF93DF938C01EB018B8181FF1BC082FF32
:100990000DC02E813F818C819D812817390764F419
:1009A000E881F9810193F983E88306C0E885F98538
:1009B000802F0995009731F48E819F8101969F8346
:1009C0008E8302C00FEF1FEFC801DF91CF911F91FF
:1009D0000F910895FA01AA27283051F1203181F1B1
:1009E000E8946F936E7F6E5F7F4F8F4F9F4FAF4F37
:1009F000B1E03ED0B4E03CD0670F781F891F9A1F4A
:100A0000A11D680F791F8A1F911DA11D6A0F711DFD
:100A1000811D911DA11D20D009F468943F912AE009
:100A2000269F11243019305D3193DEF6CF010895F1
:100A3000462F4770405D4193B3E00FD0C9F7F6CF22
:100A4000462F4F70405D4A3318F0495D31FD4052EA
:100A5000419302D0A9F7EACFB4E0A6959795879580
:100A600077956795BA95C9F700976105710508955F
:100A70009B01AC010A2E069457954795379527950B
:100A8000BA95C9F7620F731F841F951FA01D0895A3
:100A90002F923F924F925F926F927F928F929F928E
:100AA000AF92BF92CF92DF92EF92FF920F931F937C
:100AB000CF93DF93CDB7DEB7CA1BDB0B0FB6F8942D
:100AC000DEBF0FBECDBF09942A88398848885F846D
:100AD0006E847D848C849B84AA84B984C884DF80DE
:100AE000EE80FD800C811B81AA81B981CE0FD11DC2
:100AF0000FB6F894DEBF0FBECDBFED010895F89498
:020B0000FFCF25
:100B0200526561643A2025780D0A000FFF8F39F093
:100B12000F3B39FAB93B44500BCC2F61552F2D10A6
:100B220078471422AE34F00000000048690D0A0034
:100B3200256420446F6E65310D0A00526563656954
:0C0B4200766564205061636B65740D00E3
:00000001FF
